:1000000009C021C020C01FC01EC01DC01CC01BC015
:100010003DC019C011241FBECFE9CDBF10E0A0E63E
:10002000B0E0E6E1F2E002C005900D92A236B10721
:10003000D9F720E0A2E6B0E001C01D92A037B207D8
:10004000E1F7E4D0E6C0DCCF40916C0050916D0048
:1000500060916E0070916F00DB01CA01B695A795A3
:100060009795879540FD07C029E5822721EF9227C4
:10007000A0952FE7B22780936C0090936D00A0931A
:100080006E00B0936F0080916C0008951F920F92E4
:100090000FB60F9211242F938F939F9380916A0034
:1000A00090916B00019690936B0080936A00C49AC4
:1000B0008BE291E00197F1F700C00000C4988091B5
:1000C0006A0090916B008438914020F110926B008F
:1000D00010926A0080916000813071F48091690013
:1000E0008F5F8093690080916900843098F010924E
:1000F0006000109268000EC0809168008F5F80934E
:10010000680080916800843128F081E0809360006D
:1001100010926900A8959F918F912F910F900FBE1B
:100120000F901F90189514BE88E981BD81E681BDAE
:10013000A895089585B7877E806185BF16B885B577
:10014000836085BDF894EFDF85B7806285BF7894C2
:10015000889585B78F7D85BF85B58C7F85BD0895D2
:1001600084E591E00197F1F700C0000080916700FD
:100170008F5F8F708093670090916500981710F0E3
:10018000C39A01C0C3988091670081112AC08091F1
:1001900066008F5F982F9F7190936600877059F467
:1001A00053DF982F9F71909363008C7091E009F456
:1001B00090E09093620080916600811107C0809169
:1001C00064008093650081E080936200809162000A
:1001D000882339F080916300803108F08FE08093AC
:1001E00064000895A0DF80E886BD16BC8FEF87BB52
:1001F000C398C4980895F89480916000813011F4F8
:10020000AFDF02C0C39896DF78940895EBDFF3DF89
:06021000FECFF894FFCFC1
:020216000100E5
:00000001FF
